:400000000080002011000000910900009109000008B5044B1A6803F53F5302331A6000F0BFFC00BFFA46004010B5054C237833B9044B13B10448AFF300800123237010BD88
:40004000B882FF1F00000000A8210000084B10B51BB108490848AFF300800848036803B910BD074B002BFBD0BDE81040184700BF00000000BC82FF1FA8210000C880FF1F8E
:400080000000000008B501F06DFE012802D1002001F036FB08BD00BF08B5002001F082F808BD00BF684620F007018D4619B572B6EFF311841E4B1B68DBB20F2B10D9103BAC
:4000C00023F0030202F1604202F564421168DB0003F01803E0229A400A4022FA03F306E00F2B03D1134B1B681B0E00E0002383F31188114A136801331360012B01D101F0A0
:400100009FFE62B6FFF7C8FF72B684F3118801F043FA094A1368013B13601BB901F099FE01F05DFE62B6BDE819408546704700BF04ED00E020ED00E05083FF1F08B562B6E7
:40014000094801F031FE45F6BF52084B1A60084A136843F0020313600121084600F000FA002001F015FBFBE78500000014E000E010E000E008B500F023FA00F0CBF901F088
:40018000A9FB032000F09AF901F066FB114A136843F00503136000F0A5F9012803D10E4801F0B2FB02E00D4801F0AEFB01221146002000F079FE022000F002FE032000F0A9
:4001C000FFFD042000F0FCFD012000F0F9FD01F025FB08BD10E000E0AC210000D021000008B500F071F9FCE738B51C4B1B78002B2FD11B4801F088FB184B1978194B9A684E
:40020000197000215960022159705569936873B13DB90CE0996855F8240001F069F8013400E000240F4B9B681A699442F2D30E4801F06AFB0B4B5B78022B04D10948836825
:400240005B68984701E04FF0FF3010B1074801F05BFB032000F052F938BD00BFD880FF1FF0210000F080FF1F0C2200004C22000030B585B01B4B1B88ADF80830ADF800309E
:4002800043F30723002B09DD164B1B88ADF80C30ADF8043043F307235C0004E04FF00004114801F031FB114B9A681C7000215960022159705569936873B13DB90CE0996846
:4002C00055F8240001F014F8013400E00024074B9B681A699442F2D3012000F00FF905B030BD00BFCC80FF1F84220000D880FF1F38B5204B5B68092B05D81E4B1C781E4855
:4003000001F002FB07E04FF000041C4801F0FCFA1B4801F0F9FA1B4B9A681C7000215960022159705569936873B13DB90CE0996855F8240000F0DCFF013400E00024114BC8
:400340009B681A699442F2D30F4801F0DDFA0D4B5B78022B04D10B4883685B68984701E04FF0FF3010B1094801F0CEFA022000F0C5F838BDD880FF1FB8220000EC220000F4
:4003800004230000E480FF1F2C2300006423000070B582B0264B9B681A68002A3DD0244A128802A820F8082D1B6898470546E8B9BDF80010ADF804101D4B9A68198000214B
:4003C000596002219970566993683BB33EB925E0996856F8240000F08BFF013400E00024134B9B681A699442F2D317E0104B03229A709B68DE69DB6883B13EB90EE0D96867
:4004000056F8240000F074FF013400E00024084B9B689A699442F2D300E0002515B1054801F072FA002000F069F802B070BD00BFCC80FF1F9823000000B583B00023019372
:40044000022000F0D5FF01A9042000F031FF019800F000FF019A0121014800F0F7F8EFE7DC23000000B583B000230193012000F0BFFF01A9032000F01BFF019800F0EAFEB0
:40048000019A0121014800F0E1F8EFE7E823000010B5084C22680221074800F0BFF823680133236013F5807F01D90022226001F0B5F910BDD482FF1FF423000008B5002134
:4004C00001F02AFC002008BD08B5054B1B780F2B04D101F041FC0022014B1A70002008BDD882FF1F044B1B7803F0080303F0FF0003B10120704700BFC080FF1F012303FA32
:4005000000F0034A1378184310700020704700BFD882FF1F08B500F023FB00F035FB002008BD00BF70B506460D46002000F030FB002000F039FB84B2012000F035FB80B28F
:40054000D4F5006400D50F3444F307143470D0F5006000D50F3040F307102870002070BD38B504460D46032824D8DFE800F00209101E084600F028FB104B1D55002038BDF4
:40058000084600F02DFB0D4B1D55002038BD084600F032FB094B1D55002038BD29462046FFF7DEFF0134E4B200E00024022CF5D9002038BD6FF0130038BD00BFDC82FF1F86
:4005C00038B50024254609E00021094B19552046FFF7C6FF00B105460134E4B2022CF3D900F0E0FB00F096FB00F04CFB284638BDDC82FF1F70B50E461546074C34F810000C
:4006000000F01AFB34F8160000F05EFB34F8150000F0A2FB002070BD08240000F8B506460F46154600240DE006EBC4039A88B5FBF2F302FB13531BB956F8343000209847D2
:400640000134A4B2BC42EFD30020F8BDF8B505460E461746002409E005EBC4035868384202D055F8343098470134A4B2B442F3D30020F8BD10B582B004460DF106010DF1F1
:400680000700FFF74FFF9DF9073023709DF806306370002002B010BD10B5047844B1002000F092FA002221461046FFF7A3FF02E0012000F089FA002010BD00BFFEE700BF43
:4006C000F0B40022174611E050F82760F3B226F0FF0608E001EB420511F812406D78A5550132013BDBB2002BF4D10137272FEBD9F0BC704708B50A46002101F04CFD08BD34
:4007000038B50222274B1A80182327490B700E200231088002310B70192502310D8002310B70224B1A7008224FF040231A70032103F5007319701E4B1B78DBB21D490B7064
:400740001D4B1A8041F25122023B1A8000240CE01A4B1B7803F0010343EA440404F003044FF4F07001F0F4FB013D0DB1032CEFD115B90320FFF7A2FF114B4FF480721A806A
:4007800007221A7000220F490A704820023108701A700222033B1A700B4A137843F00703137038BD80400040824000400043004008010049A146004022420040254200402B
:4007C0000440004006400040A2430040F8B5164B1B78DBB2154E3478E4B2154F3D78EDB203F00701134A11701B090132137044F00303337045F003033B7003220E4B1A70C1
:4008000040230E4A13700232137030220C4B1A70202203331A700A2001F074FA3D7034704422084B1A70F8BDCF010049F8460040F94600406E5800400D5100400159004068
:40084000205B00407658004008B501F099FC08BD38B572B63A4A137843F00403137000240CE0384D630019194A0011462A44084691882858FFF73EFF0134E4B2062CF0D9AD
:4008800000240BE02F49A3001819420088180622016BC06AFFF7D8FF0134E4B2002CF1D029494FF09040FFF70BFF04212748FFF721FF042226492748FFF7C6FF264A1378D3
:4008C00043F0020313701032137843F002031370224C237843F040032370A2F58632513A137843F01003137008221D491D48FFF7ABFF0A221C491D48FFF7A6FF08221C49C0
:400900001C48FFF7A1FF08221B491C48FFF79CFF1B4A137843F0080313701A4D61232B70FFF7EEFE81232B700122174B1A70FFF74DFF0E2221461548FFF786FF38BD00BF6E
:40094000E8460040B0260000A000004800760040000A00480876004003500140A0430040DC09004802510040E4090048C0510040F009004812510040F809004822510040A8
:40098000224300400048004004000840B043004008B501F0C9FB03680C2B00D1FEE7FEE708B5104E104D16E029686B68AC68002204E051F8040B43F8040B0432A242F8D16B
:4009C000E868002203E0002143F8041B04328242F9D11035013E002EE6D101F0ABFBFFF7ADFBFEE7010000005829000008B5114A114B1A60114A136843F40073136000235A
:400A00000AE0032B03D80E4A52F8231000E00D490D4A42F8231001332F2BF2D90B4B1A780B4B1A70084A0B4B1A60FFF711FF01F087F808BD0004FA050CED00E014ED00E0B9
:400A400000000000910900000080FF1FBC760040C080FF1F08ED00E010B541F6FF734FF480420121022001F013F8084C207041F6FF731A460121042001F028F86070044886
:400A800001F042F8002001F045F810BDE082FF1FC50B000070B52C4C207801F087F8607801F084F8294B1B78FF2B03D101F0ECF8264B1870254D287806230246042101F04A
:400AC000FDF8214E341DA4B2224645F6A031287801F008F92978307801F0A8F86B78FF2B02D101F0D1F86870184D687807230246042101F0E3F8164A92B22146687801F015
:400B0000F1F8114C6978607801F090F80121207801F030F80121607801F02CF801F020FA0C4A137843F02003137001F01DFA0A4B1A7842F001021A701A7842F002021A7096
:400B40000122064B1A6070BDE082FF1FFC80FF1F4083FF1F996400407965004080E200E008B5074B9B6823B9FFF776FF0122044B9A6000F077FFFFF78DFF024B1B7808BD70
:400B8000E082FF1F6864004008B500F079FF08BD044B1B7803F0FF020BB90028F8D01046704700BF68640040C0F10100034B33F91030034A1088181A00B270474083FF1F90
:400BC000688DFF1F704700BF044A137803F0BF03800100F0400018431070704700510040044A137803F0FE0300F0010018431070704700BF20510040044A137803F07F03FC
:400C0000C001C0B218431070704700BF00510040024A137843F08003137070477C640040014B1880704700BF14680040014B1880704700BF94680040014B1880704700BFB2
:400C40005468004008B50E4A137803F0C00343F0090313701E32137843F0010313700132137843F0010313704FF6FF70FFF7D8FF4FF6FF70FFF7DAFF0020FFF7DDFF08BD98
:400C80007C64004008B5054B1B7823B9FFF7DAFF0122024B1A70FFF7BBFF08BDEC82FF1F024A137843F08003137070477F640040014B1880704700BF1C680040014B1880E2
:400CC000704700BF9C680040014B1880704700BF5C68004008B50E4A137803F0C00343F0090313701F32137843F0010313700132137843F0010313704FF6FF70FFF7D8FF35
:400D00004FF6FF70FFF7DAFF0020FFF7DDFF08BD7F64004008B5054B1B7823B9FFF7DAFF0122024B1A70FFF7BBFF08BDED82FF1F024A137843F08003137070477D64004027
:400D4000014B1880704700BF18680040014B1880704700BF98680040014B1880704700BF5868004008B50E4A137803F0C00343F0090313701F32137843F001031370013284
:400D8000137843F0010313704FF6FF70FFF7D8FF4FF6FF70FFF7DAFF0020FFF7DDFF08BD7D64004008B5054B1B7823B9FFF7DAFF0122024B1A70FFF7BBFF08BDEE82FF1FCA
:400DC00038B5EFF3108572B604284ED82D4B53F82030002B4BD02B4A013B42F820302A4B53F82030032B07D10222274B43F820200022264B43F8202000F03EFC244B1B6830
:400E0000002B36D1234B1C6800F014FCB0F1FF3F31D0214B53F82020204B1B689A422CD9B4F1FF3F03D00221174A42F824101C4A52F820201343194A13600022124B43F86A
:400E4000202000F0B3FB174B53F820304BB10024144B43F8204040F0004001F003F820460CE000F0FFFF002008E0032006E0042004E0002002E0002000E0002085F3108896
:400E800038BD00BF4881FF1FF481FF1F1883FF1F5083FF1FDC81FF1F6C2800003483FF1F50280000F082FF1FF8B5EFF3108472B628BB00EB4005AB00184DEB5803EB430686
:400EC000B500174E75598D421BD34AB103EB43039E00134B1E44B3689A4214D3954214D3A9B103010F4DEB589BB90301EE180127EF507260013900F087F800200AE00320BA
:400F000008E0082006E0082004E0082002E0082000E0072084F31088F8BD00BF082800001C2800008083FF1F18B108B5C368984708BD704708B508B1406800E00020042808
:400F400016D80C4B53F8203093B10A4A013B42F82030094B53F82030032B07D10222064B43F820200022054B43F8202000F084FB08BD00BF4881FF1FF481FF1F1883FF1F3B
:400F800018B1034640689B6801E00023184604281DD80F4A52F82020CAB10E4A52F82010032914D010B50C4C54F820201A4344F820200A4A52F82020134207D0012905D125
:400FC0000222044B43F8202000F056FB10BD704728280000F481FF1F1883FF1F0483FF1F80B108B50378012B06D013B1032B06D008BDFFF79FFF08BDFFF7C2FF08BDFFF73A
:4010000093FF08BD704700BF30B400EB40029300214AD258214B03EBC2035C68B4F1FF3F04D11E4B03EBC20250602DE01C4B03EB04139B6899420AD2184D05EBC202506048
:40104000174A02EB04125B1A93601DE01C46144B03EB04139A68891ADB68B3F1FF3F05D00F4A02EB031292689142EFD2B3F1FF3F05D00B4A02EB031295686D1A9560084A80
:4010800002EB0414E0601C46054B03EB00108160C46030BC704700BF082800000481FF1F8083FF1F38B5394A02EBC0035C6852F83030013342F8303000EB40018A00344951
:4010C0008A58934203D90022304B43F83020B4F1FF3F59D02F4B03EB04139B68002B4ED1214600E019462B4B03EB0113DB68B3F1FF3F05D0274A02EB03129268002AF1D0ED
:40110000244A02EB01114FF0FF32CA601F4A02EBC0004360B3F1FF3F07D01E4A02EB03139A68013A9A6000E02C4604EB44029300194A13441B7A7BB904EB44029300164ACF
:4011400013445A68154B53F8223003EB83039A0013481044FFF744FF0E4B03EB0413DD68596821B101392046FFF74EFF03E024010022084B1A51B5F1FF3FD5D138BD054A94
:4011800002EB0414013BA36038BD00BF0481FF1F1C2800008083FF1F0828000018280000F427000038B5EFF3108572B6002838D1FFF778FF204B1B68002B34D11F4B1C686E
:4011C00000F038FAB0F1FF3F2FD01D4B53F820201C4B1B689A422AD9B4F1FF3F03D00221194A42F82410194A52F820201343154A13600022144B43F8202000F0D7F9144B59
:4012000053F820304BB10024114B43F8204040F0004000F027FE20460AE000F023FE002006E0032004E0002002E0002000E0002085F3108838BD00BF5083FF1FDC81FF1FB7
:401240006C2800003483FF1FF481FF1F50280000F082FF1FEFF3108372B6114A1168114A126882B9B1F1FF3F0FD00F4A52F821206AB110B40D4C54F8212022EA000044F839
:401280002100002007E0022002E0022000E0012083F31088704783F3108810BC704700BFDC81FF1F5083FF1F282800001883FF1F04280FD80B4B53F820306BB10A4B53F895
:4012C0002030032B0AD059B1084B53F820300B60002070470320704701207047072070470E20704728280000F481FF1F1883FF1F38B5EFF3108472B6042853D8324B53F8A1
:401300002030002B50D0314B53F82030032B4DD02F4D55F820200A4345F820202D4A52F82020114244D0012B44D10222274B43F8202000F0A1F9284B1B68002B3CD1274BF9
:401340001D6800F077F9B0F1FF3F37D0244B53F82020244B1B689A4232D9B5F1FF3F03D002211A4A42F825101F4A52F8202013431C4A13600022154B43F8202000F016F904
:401380001A4B53F820304BB10025184B43F8205040F0004000F066FD284612E000F062FD00200EE003200CE001200AE0072008E0002006E0002004E0002002E0002000E049
:4013C000002084F3108838BD28280000F481FF1F1883FF1F0483FF1F5083FF1FDC81FF1F6C2800003483FF1F50280000F082FF1F38B5EFF3108472B6364B1D68364B1B6816
:40140000002B5DD1B5F1FF3F5CD0344B53F82530002B59D0324B53F82530034256D1314B43F825000122304B43F825202F4B53F825002F490B6823EA00030B602D4B43F84A
:4014400025202D4B53F82520224B1A6000F0F2F8B0F1FF3F06D0294B53F82020244B1B689A420DD81B4B1868B0F1FF3F03D000221D4B43F8202040F0004000F0F3FC1AE011
:401480000021194A42F82010184A52F820201343174A136000F08AF8164B53F8203043B10022144B43F8202040F0004000F0DAFC01E000F0D7FC00200A4B43F8250006E035
:4014C000022004E0022002E0012000E0002084F3108838BDDC81FF1F5083FF1F282800001883FF1F0483FF1FF481FF1F502800003483FF1FF082FF1FE081FF1F6C28000020
:4015000008B500F053F8084B53F8203043B10022054B43F8202040F00040044B186008BD024B186008BD00BFF082FF1F5483FF1F10B500F07FF8124B1B68B0F1FF3F1AD045
:40154000104A52F82010104A1268914213D9B3F1FF3F03D002240D4941F8234000210B4B43F820100A4B53F820301A43064B1A60FFF7C6FF10BD43F00043064A136010BDAF
:40158000DC81FF1F6C2800003483FF1FF481FF1F502800005483FF1F034B1B6813B10022014B1A60704700BF4483FF1FF0B4184B19880B0A174AD356B3F1FF3F01D15356CB
:4015C00001E008335BB2144D55F82320134850F82200134E56F8224045F82340114D2F6846F822702A60B4F1FF3F09D10E4A42F82340012202FA03F321EA0301044B19804E
:401600000A4B19680A4A42F820101860F0BC70473083FF1FE82600009C81FF1F5883FF1F2081FF1F2C83FF1F5C81FF1FDC81FF1FE081FF1F0C4B1A88130A0C49CB56B3F177
:40164000FF3F01D18B5601E008335BB2B3F1FF3F06D0074A52F82320064B53F8220070474FF0FF30704700BF3083FF1FE82600009C81FF1F5883FF1F30B4144B53F8202080
:40168000134C2368134951F823502560124C44F823004FF0FF3441F82340104951F82210A1420AD10E4951F820400E480188214301800D4941F8223002E0064840F82130E8
:4016C000064941F8223030BC704700BF3481FF1F2C83FF1F2081FF1F5883FF1F5C81FF1F6C2800003083FF1F9C81FF1F0022014B1A60FEE74C83FF1F08B5FFF7F7FF00BF99
:4017000008B572B6FFF7F8FF10B150F8210070474FF0FF30704700BF0122014B1A60FEE74C83FF1F70B50546124B53F8306000241CE0104B03EBC50321465868FFF7E4FF7E
:401740000D4A52F82030013B42F820300B4B53F82030032B07D10222084B43F820200022074B43F82020FFF787FF0134B442E0D370BD00BFE82700004881FF1FF481FF1F0B
:401780001883FF1F18B908B5FFF7CCFF08BD7047194B1A4ADA621A4A9A631A4ADA63EFF3108272B6184B1B6813BB10B5044600F053F8164B1C600122134B1A602046FFF7D1
:4017C000E1FFFFF737FFB0F1FF3F0ED0104B53F82030104A11680B43136000220E4B43F82020FFF7E3FE00F03DFB62B6FFF794FF82F31088072070470080FF1F251E000034
:40180000E91D0000A50000004C83FF1F7887FF1F502800003483FF1FF481FF1F08B5EFF3108272B6094B1968094B1B6833B94FF0FF30084B43F82100002000E0022010B91A
:40184000084600F068FB82F3108808BDDC81FF1F5083FF1F0C81FF1F10B5EFF3108472B600F0B0FA034A136843F07F43136084F3108810BD20ED00E07222074B1A70202236
:40188000023B1A700622643B1A70472210331A70002253331A7070478A65004010B500F05FFB04460A4A137843F020031370023A137843F010031370013A137843F0100315
:4018C000137000F02FF9204600F04EFB10BD00BF9A65004008B5054B1B7823B9FFF7CCFF0122024B1A70FFF7D9FF08BD3C83FF1F034B1B7813F0040FFAD1024B18707047EE
:40190000676500404765004038B5074B1B782BB938BDFFF7EDFF0134A4B201E005460024285D0028F5D138BD3C83FF1F08B50A280FD00C2802D0082806D102E04FF4805230
:4019400009E04FF4807206E0002000F0D9F9002201E04FF480620021094B198042F2107303FB02F303F6C413064A82FB0302DB17C3EBE223044A1360044B198008BD00BF2D
:40198000668DFF1FAD8BDB686C8DFF1F688DFF1F10B500F0E5FA0446184A137843F0010313701032137843F00103137002F5AA520832137843F0030313701822104B1A70D2
:4019C000013B1A7842F040021A701A7802F0FC021A70C822053B1A700222A3F597530C3B1A70084A137843F0080313700A2000F089F9204600F0B8FA10BD00BFAB430040E8
:401A000006590040275B004010B504460A280DD00C2802D0082804D101E0C22207E0422205E0002000F06CF9C22200E08222034B1A702046FFF77AFF10BD00BF0259004076
:401A400008B5064A137843F0060313700C20FFF7DBFF0022024B1A8008BD00BF01590040648DFF1F08B5054B1B7823B9FFF7E8FF0122024B1A70FFF78BFF08BD3E83FF1F66
:401A8000024A137843F001031370704700590040F0B583B016461F460B4C012525700023019300932B460A460146284600F0CAF83A463146207800F09FF80221207800F067
:401AC00089F8207803B0F0BD3482FF1FF0B583B016461F460B4D00242C700194009423460A460146204600F0ADF83A463146287800F082F80221287800F06CF8287803B059
:401B0000F0BD00BF3582FF1F014B1B681864704708ED00E04001C0B2014B1870704700BF00E400E0054A137843F0040313701032137843F004031370704700BFA243004010
:401B40000B4A7F2313708021517007E0DA0002F1804202F5F042013BDBB21370002BF5D1DB0003F1804303F5F04300221A7070473882FF1F172815D831B103010A495A5C9A
:401B800042F020025A5405E0030107495A5C02F0DF025A540001044A835C43F00103835400207047012070471070004017280CD80001074BC1180A7942F004020A71C25C65
:401BC00042F00102C254002070470120704700BF1070004017280BD80001064A835C03F0F103490001F00E011943815400207047012070471070004041F6FF73994201D1F4
:401C00004FF4005141F6FF739A4201D14FF40052172808D8C00000F1804000F5EC408180C280002070470120704700BF172805D8034B03EB001041720020704701207047F8
:401C40001070004017281BD810B4C00000F1804404F5EC44D201D2B201F07F01114321709DF804201201D2B203F00F03134363709DF8083003F00F03A3700020E07001E0AF
:401C80000120704710BC704710B500F069F90A4B5B78182B0BD9084A1478013B5370E30003F1804303F5F0431B78137000E0FF2400F05AF9204610BD3882FF1F10F0800FCB
:401CC0000CD111F4704F0BD1C00000F1804000F5F04001808270C37000207047012070470120704710F0800F08D1C00000F1804000F5F0408180C2800020704701207047B4
:401D000001BE704708B5034B1B7A00FB03F000F01FF908BD4082FF1F0E4B1A7802F0FC0200F00300104318701A7842F080021A701A7802F07F021A7049011A7801F06001BC
:401D400002F09F02114319701A7842F010021A70704700BF834300400122014B1A70704784430040024B1878C0F3C000704700BF01510040014B1B681865704708ED00E030
:401D80004001C0B2014B1870704700BF04E400E01022014B1A60704700E100E01022014B1A60704780E100E010B50446FFF7F6FF2046FFF7DFFF0720FFF7E2FFFFF7E8FFEF
:401DC00010BD00BF18484FF47F0102680A43026016486FF07F4102680A400260704714484FF080510160704772B611484FF000610160FFF79DFB0F48006800F0D5F858B1B8
:401E00000C4800684FF080730B4A0C490FB40FB46FF00600004700BF6FF0060062B6004762B600DF08B0704720ED00E01CED00E004ED00E05483FF1F651E0000211E000091
:401E4000EFF30880054908600548006880F3088870470248006880F3088870475082FF1F2482FF1F411C8900154A11440968154A136899421AD0F0B444464D4656465F4607
:401E8000F0B400B5104C9B002344EFF308851D60116089002144096881F3088802BC8E46F0BCA046A946B246BB46F0BC002806DB00B500F06DF802BC8E46FFF7D3BF70470F
:401EC000A82800003883FF1F2882FF1FF0B444464D4656465F46F0B400B5EFF3038308B48000174901440968164A0244EFF30883136088471448804704BC4FF080700243B0
:401F000082F3038801BC8646F0BCA046A946B246BB46F0BC704780000A4901440A6882F3088804BC4FF08070024382F3038808BC9E46F0BCA046A946B246BB46F0BC7047F3
:401F4000802800006C83FF1F711F0000000000000230800803D000BF01380046FCD17047EFF3108072B6704780F31088704700BF08B572B6014B1868FFF7CDFFDC81FF1F0D
:401F800008B5024B1868FFF7A1FF08BDDC81FF1F08B562B6FFF7F4FF72B600F041F8014B186808BD5483FF1F00280BDA20F000400130054B53F82000044B1B68181A18BF08
:401FC0000120704701207047A82800003883FF1F054B53F82020054B53F820309A4201D101207047002070474881FF1F3C28000008B5FFF7DBFA084B53F8203043B100228E
:40200000054B43F8202040F00040044B186008BD024B186008BD00BFF082FF1F5483FF1F38B5364B1C680022354B1A60354A52F82430013342F82430334B53F8245020467B
:40204000FFF7C6FF012801D0A54204D103222F4B43F8242003E002222C4B43F824202C4B53F824102B4A136823EA010313602A4B53F82440214B1C60B5F1FF3F0FD0234B2D
:4020800053F82530032B07D10222204B43F825200022224B43F825202846FFF7EDFAFFF7C9FAB0F1FF3F0BD1B4F1FF3F03D00022164B43F8242044F00044194B1C6038BD98
:4020C000184B53F82020134B1B689A4208D800220E4B43F8242044F00044114B1C6038BD00210A4A42F82010094A52F820201343084A1360FFF77CFF38BD00BFDC81FF1F9F
:402100004483FF1F4881FF1F0C81FF1FF481FF1F502800003483FF1FE081FF1F1883FF1F5483FF1F6C280000014B1868704700BFB482FF1F0E4B70B51E460E4C0025E41A92
:40214000A410A54204D056F8253098470135F8E700F0F0FB084B094C1E46E41AA4100025A54204D056F8253098470135F8E770BD4029000040290000402900004829000070
:4021800010B5431E0A44914204D011F8014B03F8014FF8E710BD03460244934202D003F8011BFAE77047000000000000526573657420686173206D616465206279205761EA
:4021C000746368446F672054696D657200000000526573657420686173206D61646520627920506F7765724F6E526573657400000A5370656564207369676E616C207661D7
:402200006C75652069732030000000000A427265616B6C69676874207369676E616C206F626A6563742075706461746564207769746820627265616B6C69676874207369B4
:40224000676E616C2076616C756500000A4572726F723A20427265616B6C69676874207369676E616C206E6F742061626C6520746F20777269746520746F204472697665E6
:40228000720000000A556E7375636365737366756C2052656164206F662074686520646174612066726F6D20534F5F4A4F59535449434B20000000000A456E67696E6520EE
:4022C0007369676E616C207570646174656420776974682076616C7565206F66207370656564207369676E616C0000000A5370656564207369676E616C206973206F6C6488
:40230000000000000A456E67696E65207369676E616C207570646174656420776974682076616C7565206F66203000000A456E67696E6565207369676E616C206F626A6517
:4023400063742075706461746564207769746820656E67696E65207369676E616C2076616C7565000A4572726F723A20456E67696E6565207369676E616C206E6F74206179
:40238000626C6520746F20777269746520746F2044726976657200000A4661696C7572653A204A6F79737469636B206472697665722076616C7565206E6F7420757064616D
:4023C000746564206F6E20534F5F4A4F59535449434B5F7369676E616C000000E90100000200000001000000710200000100000001000000910300000A000000F102000042
:402400006400000002000000000001000100010001000100010001000100020002000200020002000200020002000200020002000200030003000300030003000300030001
:40244000040004000400040004000400050005000500050005000600060006000600070007000700080008000800090009000A000A000A000B000B000C000C000D000D006E
:402480000E000F000F00100011001100120013001400150016001700180019001A001B001C001D001F0020002100230024002600280029002B002D002F0031003400360064
:4024C00038003B003D0040004300460049004C004F00530057005B005F00630067006C00700075007B00800086008C00920098009F00A600AD00B500BD00C500CE00D700FB
:40250000E100EB00F50000010B011701240130013E014C015B016A017A018B019C01AF01C201D601EA01000217022E02470261027C029802B502D402F402160339035D03EC
:402540008303AB03D50300042D045D048E04C204F80430056B05A805E8052B067106BA0606075607A90700085B08B9081C098309EF09600AD50A500BD10B560CE20C740D7E
:402580000D0EAC0E520F0010B510731138120713DF13C014AB15A116A117AD18C419E91A1A1C581DA51E00206B21E52271240E26BD278029562B412D422F5A318933D1356A
:4025C0003338B03A493D0040D542CB45E2481C4C7A4FFF52AC56825A845EB3621267A26B66706075927A0080AA85958BC3913798F59EFEA558AD04B508BD66C524CE44D7F8
:40260000CCE0C0EA25F5FFFF0000000099060000000000000000000000000000000000000000000000000000000000000000000000000000990600000000000000000000EE
:4026400000000000000000000000000000000000000000000000000000000000000000000200000000000000010000008026000000000000000000000000000000000000B1
:40268000040000007506000000000000010000000000000001000000AC2600000000000000000000000000000000000003000000305100404000F0510040100000000140F1
:4026C000001000140140000800400140000A004C01400002005001402000000060520040D409004806000000FF000101020202020303030303030303040404040404040444
:402700000404040404040404050505050505050505050505050505050505050505050505050505050505050506060606060606060606060606060606060606060606060649
:4027400006060606060606060606060606060606060606060606060606060606060606060606060606060606070707070707070707070707070707070707070707070707C1
:402780000707070707070707070707070707070707070707070707070707070707070707070707070707070707070707070707070707070707070707070707070707070759
:4027C0000707070707070707070707070707070707070707070707070707070707070707070707070707070701000000F027000000000000000000000200000000000000A7
:4028000000000000FFFFFFFF000000000000000000000000000000000000000010270000010000000000000000000000000000000000000001000000010000000100000061
:40284000010000000100000001000000010000008000000001000000100000000400000004000000010000000200000001000000010000001000000004000000040000009E
:4028800075010000E1010000910400006504000039040000811F0000811F0000811F0000811F0000811F000000000000000000000000000000000000010000000200000062
:4028C000616C726D5F316D730000000065765F6A6F79737469636B5F6F6E44617461000065765F73706565645F6F6E446174610074736B5F696E69740000000074736B5F45
:402900006261636B67726F756E64000074736B5F696F000074736B5F636F6E74726F6C0074736B5F6272616B656C69676874000043000000F8B500BFF8BC08BC9E467047AC
:402940004D000000ED090000F8B500BFF8BC08BC9E4670472900000068290000C880FF1FF0010000B80A000000000000000000000000000084260000000000000000000018
:4029800058260000000000000000000030260000000000000000000008260000FFFF0000C028000000000000FFFFFFFFFFFFFFFFFFFFFFFFFFFFFFFFFFFFFFFFFFFFFFFF47
:4029C00001000000020000000300000004000000FFFFFFFF00000000000000000400000002000000020000000100000001000000010000000100000001000000FFFFFFFFC8
:402A0000FFFFFFFFFFFFFFFFFFFFFFFFFFFFFFFFFFFFFFFFFFFFFFFFFFFFFFFFFFFFFFFFFFFFFFFFFFFFFFFFFFFFFFFFFFFFFFFFFFFFFFFFFFFFFFFFFFFFFFFFFFFFFFFFD6
:402A4000FFFFFFFFFFFFFFFFFFFFFFFFFFFFFFFFFFFFFFFFFFFFFFFFFFFFFFFFFFFFFFFFFFFFFFFFFFFFFFFFFFFFFFFFFFFFFFFFFFFFFFFFFFFFFFFFFFFFFFFFFFFFFFFF96
:402A8000FFFFFFFFFFFFFFFFFFFFFFFFFFFFFFFFFFFFFFFF0300000003000000030000000300000003000000CC280000E0280000F0280000FC2800000C2900001429000071
:402AC00020290000648DFF1F000000003C8BFF1F5087FF1FFFFF00007F800000030000000000E02EC05D00001800000000366E0100000000000000000000000000000000BC
:402B0000000000000000000000000000000000000000000030290000000000000000000000000000000000000000000000000000000000000000000000000000000000003C
:402B400000000000000000000000000000000000000000005482FF1F0000000000000000000000000000000000000000000000000000000000000000000000000000000061
:402B80000000000000000000000000000000000000000000000000000000000000000000000000000000000000000000000000000000000000000000000000000000000015
:402BC00000000000000000000000000000000000000000000000000000000000000000000000000000000000000000000000000000000000000000000000000000000000D5
:402C00000000000000000000000000000000000000000000000000000000000000000000000000000000000000000000000000000000000000000000000000000000000094
:402C40000000000000000000000000000000000000000000000000000000000000000000000000000000000000000000000000000000000000000000000000000000000054
:020000040003F7
:0200000480007A
:400000000145004004520040015B004001640040036500401202014024030140080401402605014008060140370701402608014044090140560A0140430B01403B0C0140C2
:40004000370D0140370E0140260F014030140140411501403816014036170140391801403B190140391A0140451B01400840014007410140084201400343014009450140B7
:4000800008460140064701400248014001490140014C0140094D01400A500140025101400301000201021038111027848901870F88388A72040308030C0314021601180357
:4000C00020032A0332023601580459045C115F01D804D904DC11DF010108020105180601088809400B080C040F241004110812101304148016081E101F40288429082E0228
:400100002F043110351838043A1B3B083D883F208C088D10C0E5C267C456CAA7CC64CE77580459045C115F01D804D904DC11DF01010802010508060108800FA01004114A35
:4001400014041540171229282B402C042D083240370A382439403D483F2094049C809D089E01A504A710AA10B340C0A5C231C4DFCA67CCC8CE7EE601EC40EE805804590411
:400180005C115F01D804D904DC11DF010004014003300508088009010A200E400FA01108120114801540171829042B502D082E403040321034C035043710382439403D40A7
:4001C0003E2080108108823183089424954098809D089E019F18A105A350A905AA40AB50AC80AD20AF02C025C23DC4F5CA53CC7CCE3EE204E606EA04EE03130214011504D2
:400200001B011D0421012A03320233033601370439803F405401580C59045B0C5C915D105F018B029701A204A602AE01B002B101B201B302B404D602D732D804D904DB0CC0
:40024000DC11DD10DF01004003A008220A020E2010A2120817201840191D1B201E201F4021042209231026802720280229112F4032013384340137A8382039083B024BC0F2
:400280005B085F40628068A269806B04701071C079407D408110820883808740930294209588960298219D559F04A380A4A0A580A905AB08AE01AF40B425C00DC22BC44F6F
:4002C000CA8DCCFBCE07D612D808DE18E201030206080701080109010D800E100F401110132015201710180219081D041E02220423082404254027802A012B042C082D02D4
:4003000031FF361F38803E403F014020410349FF4AFF4BFF4DA04F045018580459045A045C015F01604062C06440654066C068C06AC06CC06EC087029B029F01B301B502B9
:40034000C020C103C501C620C809C9FFCAFFCBFFCDAFCE0FCF04D018D608D804D904DA04DB04DC01DD90DF01E040E2C0E440E540E6C0E8C0EAC0ECC0EEC00040024403A0E9
:4003800004020510082409800B400C100F40108011141211150816411B80204024082710281029552A1130A032013324340435043750382239983A043B023F084220431028
:4003C000462047104F0856205E4064017A807B8090029240950497409B409C109D019E05A580A680A708B440B640C05FC25FC4BFCA0FCC3FCE4FD066D610D810E601EC4020
:400400004030410649FF4AFF4BFF4DA04F0450185280580459045A045B045C115F01604062C06440654066C068C06AC06CC06EC08B028F0293019E01B102B501B601C0203F
:40044000C106C601C702C814C9FFCAFFCBFFCDAFCE0FCF04D018D280D804D904DA04DB04DC01DF01E040E2C0E440E540E6C0E8C0EAC0ECC0EEC00201030806010820098032
:400480000C100E010F4011041284134215141604170218021A011B802040211023082C102D102F80300235013680388039203D043F40411047084A084E085040520870021F
:4004C00077408C219402950497409C309E05A680B010C083C2D3C47FCAE0CC91CE5CD044D224E2404020410149FF4AFF4BFF4DA04F045018580459045A045C115F0160401C
:4005000062C06440654066C068C06AC06CC06EC086029A02AE01B202B401C020C105C501C602C805C9FFCAFFCBFFCDAFCE0FCF04D018D280D804D904DA04DB04DC10DF013E
:40054000E040E2C0E440E540E6C0E8C0EAC0ECC0EEC001040211040408200B040F08101011101284134017401C241D202A132D142E02301032803410368038023A043B4025
:400580003F444004438045204F8857C07740C025C242C48FCAE5CC3CCE5BD02CD21000100409050406100B02102C1101121114401506181C1A221D061E03201428302A0C0E
:4005C00034603506361F3701382039203F504002460449FF4A074BFF4C404D204EF04F055008580459045A045C125D025F01604061A862406320D804D904DC11DF01024033
:400600000320068107400A850B200D200F20108414401540162019101A031B202006284029082AA02B102C402D4830043128325133103750382839403A013B013E203F0152
:400640004004501052405310814084018F40900892A49540972098409A219B409D109E409F10A080A108A310AA20C09CC26FC4BACADFCC3FCEAFD004E408E604EA04EC20A4
:40068000580459045C115F01850A861C870488418A168B059041920E950396439704981C9A439C209D039F04A208A503A70CAA40AB08B01AB220B30FB40FB640BA22BB089A
:4006C000BE44C036C105C5E0C60BC70CC816C9FFCAFFCBFFCEF0CF44D00CD401D804D904DA04DB04DC22DD22DF01E6C0EA40EB020020021407580A840B620C040F20100841
:4007000012401320144015401620180819441A842020210829102A142C442D40300832403480375838083B203E20410849014B62508859455B20844087209220954098805C
:400740009A019B08A310A720C076C22FC4BACAB6CC7ACE26D002D20CD60FE6085418580459045B045C115D205F0183018524878A8B018D088E018F70953E993E9E01A51224
:40078000A78CB138B301B401B506B7C0BE10BF44C062C105C204C401C6CEC80CC9FFCAFFCBFFCC62CDA0CEF0CF41D00CD203D302D804D904DA04DB04DC21DD12DF01E64024
:4007C000E702E910EA30EB10ED10EE10EF12018905190642078009800B080C020F1010121240131014801501192020452201232028202C022D092F0533143410351037801A
:40080000386439023F104001410142044A084B80501051805F026520668069406B08860287849312954099199F08A380B402B504C0FDC233C41FCAF2CC36CE2FD00DD20C90
:40084000D680D83000040280043C0582064209040A040C7F0DFF11C31418150C183C191C1A411BE31D08201021412408250F27F0286729F32A182B0C2E032FF33020311C8E
:400880003280330F341F352C364037C038803A203B283E0156025713580459045B045C225D205F0184018801AC01B401BA02D804D904DC12DF01004003A807140810092838
:4008C000108512081308154019821B281C401E0421212208230228152A802B802D082E022F0130803108320133203510378038643B803E083F10590269406B147090710872
:40090000730883018A848CA08E088F8090049202931295029604978099189A029B809CA09D809F16A608A901B680B720C06FC206C48FCADFCC3FCE6ED601E010E408EC20F0
:4009400010801680318038083E80C430CC10CE60500857029408A080A580D420D62080049408A580A808B302B480E680EA808580A580E64057045C0264049804B004D402E3
:40098000D601D801EC011B08272083089C02B704C608C801E802440183209B20B402D004E8082080C840B0409C011280740184018E80B001C408DE04E202EC0400030101A7
:4009C00008020A020C030D010E0310061A061C060003100A808000004000000008C0C00000030300800040808000800000000000000B0B0000000000003939003800000070
:400A000000010000000000000000000000000000000000000000000000000000000000000000000000000000000000000000000000000000000000000000000000000000B5
:400A40000000000000000000000000000000000000000000000000000000000000000000000000000000000000000000000000000000000000000000000000000000000076
:400A80000000000000000000000000000000000000000000000000000000000000000000000000000000000000000000000000000000000000000000000000000000000036
:400AC00000000000000000000000000000000000000000000000000000000000000000000000000000000000000000000000000000000000000000000000000000000000F6
:400B000000000000000000000000000000000000000000000000000000000000000000000000000000000000000000000000000000000000000000000000000000000000B5
:0200000490006A
:0400000000004005B7
:0200000490105A
:04000000BC90ACAF55
:0200000490303A
:02000000F17895
:0200000490402A
:4000000000000000000000000000000000000000000000000000000000000000000000000000000000000000000000000000000000000000000000000000000000000000C0
:400040000000000000000000000000000000000000000000000000000000000000000000000000000000000000000000000000000000000000000000000000000000000080
:400080000000000000000000000000000000000000000000000000000000000000000000000000000000000000000000000000000000000000000000000000000000000040
:4000C0000000000000000000000000000000000000000000000000000000000000000000000000000000000000000000000000000000000000000000000000000000000000
:0200000490501A
:0C00000000012E16106900012E2801E1FD
:00000001FF